{
  "_format": "hh-sol-artifact-1",
  "contractName": "RecebivelFactory",
  "sourceName": "contracts/RecebivelFactory.sol",
  "abi": [
    {
      "inputs": [
        {
          "internalType": "address",
          "name": "_oracle",
          "type": "address"
        }
      ],
      "stateMutability": "nonpayable",
      "type": "constructor"
    },
    {
      "inputs": [
        {
          "internalType": "address",
          "name": "owner",
          "type": "address"
        }
      ],
      "name": "OwnableInvalidOwner",
      "type": "error"
    },
    {
      "inputs": [
        {
          "internalType": "address",
          "name": "account",
          "type": "address"
        }
      ],
      "name": "OwnableUnauthorizedAccount",
      "type": "error"
    },
    {
      "anonymous": false,
      "inputs": [
        {
          "indexed": true,
          "internalType": "address",
          "name": "ilpi",
          "type": "address"
        }
      ],
      "name": "ILPIAuthorized",
      "type": "event"
    },
    {
      "anonymous": false,
      "inputs": [
        {
          "indexed": true,
          "internalType": "address",
          "name": "ilpi",
          "type": "address"
        }
      ],
      "name": "ILPIRevoked",
      "type": "event"
    },
    {
      "anonymous": false,
      "inputs": [
        {
          "indexed": true,
          "internalType": "address",
          "name": "newOracle",
          "type": "address"
        }
      ],
      "name": "OracleUpdated",
      "type": "event"
    },
    {
      "anonymous": false,
      "inputs": [
        {
          "indexed": true,
          "internalType": "address",
          "name": "previousOwner",
          "type": "address"
        },
        {
          "indexed": true,
          "internalType": "address",
          "name": "newOwner",
          "type": "address"
        }
      ],
      "name": "OwnershipTransferred",
      "type": "event"
    },
    {
      "anonymous": false,
      "inputs": [
        {
          "indexed": true,
          "internalType": "uint256",
          "name": "id",
          "type": "uint256"
        },
        {
          "indexed": false,
          "internalType": "address",
          "name": "token",
          "type": "address"
        },
        {
          "indexed": false,
          "internalType": "address",
          "name": "ilpi",
          "type": "address"
        },
        {
          "indexed": false,
          "internalType": "uint8",
          "name": "ilpiRating",
          "type": "uint8"
        }
      ],
      "name": "TokenCreated",
      "type": "event"
    },
    {
      "anonymous": false,
      "inputs": [
        {
          "indexed": true,
          "internalType": "uint256",
          "name": "id",
          "type": "uint256"
        },
        {
          "indexed": false,
          "internalType": "address",
          "name": "investor",
          "type": "address"
        },
        {
          "indexed": false,
          "internalType": "uint256",
          "name": "value",
          "type": "uint256"
        },
        {
          "indexed": false,
          "internalType": "uint256",
          "name": "bnbPrice",
          "type": "uint256"
        }
      ],
      "name": "TokenPurchased",
      "type": "event"
    },
    {
      "anonymous": false,
      "inputs": [
        {
          "indexed": true,
          "internalType": "uint256",
          "name": "id",
          "type": "uint256"
        },
        {
          "indexed": false,
          "internalType": "address",
          "name": "investor",
          "type": "address"
        },
        {
          "indexed": false,
          "internalType": "uint256",
          "name": "payout",
          "type": "uint256"
        }
      ],
      "name": "TokenRedeemed",
      "type": "event"
    },
    {
      "anonymous": false,
      "inputs": [
        {
          "indexed": true,
          "internalType": "uint256",
          "name": "id",
          "type": "uint256"
        },
        {
          "indexed": false,
          "internalType": "address",
          "name": "investor",
          "type": "address"
        },
        {
          "indexed": false,
          "internalType": "uint256",
          "name": "payout",
          "type": "uint256"
        },
        {
          "indexed": false,
          "internalType": "string",
          "name": "reason",
          "type": "string"
        }
      ],
      "name": "TokenRedeemedEarly",
      "type": "event"
    },
    {
      "inputs": [
        {
          "internalType": "address",
          "name": "ilpi",
          "type": "address"
        }
      ],
      "name": "authorizeILPI",
      "outputs": [],
      "stateMutability": "nonpayable",
      "type": "function"
    },
    {
      "inputs": [
        {
          "internalType": "address",
          "name": "",
          "type": "address"
        }
      ],
      "name": "authorizedILPIs",
      "outputs": [
        {
          "internalType": "bool",
          "name": "",
          "type": "bool"
        }
      ],
      "stateMutability": "view",
      "type": "function"
    },
    {
      "inputs": [],
      "name": "baseRiskRate",
      "outputs": [
        {
          "internalType": "uint256",
          "name": "",
          "type": "uint256"
        }
      ],
      "stateMutability": "view",
      "type": "function"
    },
    {
      "inputs": [
        {
          "internalType": "uint256",
          "name": "originalDiscount",
          "type": "uint256"
        },
        {
          "internalType": "address",
          "name": "ilpi",
          "type": "address"
        }
      ],
      "name": "calculateAdjustedDiscount",
      "outputs": [
        {
          "internalType": "uint256",
          "name": "",
          "type": "uint256"
        }
      ],
      "stateMutability": "view",
      "type": "function"
    },
    {
      "inputs": [
        {
          "internalType": "uint256",
          "name": "id",
          "type": "uint256"
        }
      ],
      "name": "canRedeem",
      "outputs": [
        {
          "internalType": "bool",
          "name": "",
          "type": "bool"
        },
        {
          "internalType": "string",
          "name": "",
          "type": "string"
        }
      ],
      "stateMutability": "view",
      "type": "function"
    },
    {
      "inputs": [
        {
          "internalType": "string",
          "name": "name",
          "type": "string"
        },
        {
          "internalType": "string",
          "name": "symbol",
          "type": "string"
        },
        {
          "internalType": "string",
          "name": "ilpiName",
          "type": "string"
        },
        {
          "internalType": "uint256",
          "name": "discountValue",
          "type": "uint256"
        },
        {
          "internalType": "uint256",
          "name": "totalDebtValue",
          "type": "uint256"
        },
        {
          "internalType": "uint256",
          "name": "dueDate",
          "type": "uint256"
        }
      ],
      "name": "createRecebivel",
      "outputs": [],
      "stateMutability": "nonpayable",
      "type": "function"
    },
    {
      "inputs": [],
      "name": "deposit",
      "outputs": [],
      "stateMutability": "payable",
      "type": "function"
    },
    {
      "inputs": [],
      "name": "fundContract",
      "outputs": [],
      "stateMutability": "payable",
      "type": "function"
    },
    {
      "inputs": [],
      "name": "getContractBalance",
      "outputs": [
        {
          "internalType": "uint256",
          "name": "",
          "type": "uint256"
        }
      ],
      "stateMutability": "view",
      "type": "function"
    },
    {
      "inputs": [
        {
          "internalType": "uint256",
          "name": "id",
          "type": "uint256"
        }
      ],
      "name": "getTokenInfoWithOracle",
      "outputs": [
        {
          "components": [
            {
              "internalType": "address",
              "name": "tokenAddress",
              "type": "address"
            },
            {
              "internalType": "address",
              "name": "ilpi",
              "type": "address"
            },
            {
              "internalType": "bool",
              "name": "redeemed",
              "type": "bool"
            },
            {
              "internalType": "uint256",
              "name": "investmentAmount",
              "type": "uint256"
            },
            {
              "internalType": "uint256",
              "name": "creationTimestamp",
              "type": "uint256"
            },
            {
              "internalType": "uint8",
              "name": "ilpiRatingAtCreation",
              "type": "uint8"
            }
          ],
          "internalType": "struct RecebivelFactory.TokenInfo",
          "name": "info",
          "type": "tuple"
        },
        {
          "internalType": "uint8",
          "name": "currentILPIRating",
          "type": "uint8"
        },
        {
          "internalType": "bool",
          "name": "isPaidInRealWorld",
          "type": "bool"
        },
        {
          "internalType": "uint256",
          "name": "currentBNBPrice",
          "type": "uint256"
        },
        {
          "internalType": "uint256",
          "name": "marketRate",
          "type": "uint256"
        },
        {
          "internalType": "bool",
          "name": "canRedeem_",
          "type": "bool"
        },
        {
          "internalType": "string",
          "name": "redeemReason",
          "type": "string"
        }
      ],
      "stateMutability": "view",
      "type": "function"
    },
    {
      "inputs": [
        {
          "internalType": "address",
          "name": "ilpi",
          "type": "address"
        }
      ],
      "name": "isILPIAuthorized",
      "outputs": [
        {
          "internalType": "bool",
          "name": "",
          "type": "bool"
        }
      ],
      "stateMutability": "view",
      "type": "function"
    },
    {
      "inputs": [],
      "name": "oracle",
      "outputs": [
        {
          "internalType": "contract IRecebivelOracle",
          "name": "",
          "type": "address"
        }
      ],
      "stateMutability": "view",
      "type": "function"
    },
    {
      "inputs": [],
      "name": "owner",
      "outputs": [
        {
          "internalType": "address",
          "name": "",
          "type": "address"
        }
      ],
      "stateMutability": "view",
      "type": "function"
    },
    {
      "inputs": [
        {
          "internalType": "uint256",
          "name": "id",
          "type": "uint256"
        }
      ],
      "name": "purchaseToken",
      "outputs": [],
      "stateMutability": "payable",
      "type": "function"
    },
    {
      "inputs": [
        {
          "internalType": "uint256",
          "name": "id",
          "type": "uint256"
        }
      ],
      "name": "redeemToken",
      "outputs": [],
      "stateMutability": "nonpayable",
      "type": "function"
    },
    {
      "inputs": [],
      "name": "renounceOwnership",
      "outputs": [],
      "stateMutability": "nonpayable",
      "type": "function"
    },
    {
      "inputs": [
        {
          "internalType": "address",
          "name": "ilpi",
          "type": "address"
        }
      ],
      "name": "revokeILPI",
      "outputs": [],
      "stateMutability": "nonpayable",
      "type": "function"
    },
    {
      "inputs": [
        {
          "internalType": "uint256",
          "name": "_rate",
          "type": "uint256"
        }
      ],
      "name": "setBaseRiskRate",
      "outputs": [],
      "stateMutability": "nonpayable",
      "type": "function"
    },
    {
      "inputs": [
        {
          "internalType": "address",
          "name": "_oracle",
          "type": "address"
        }
      ],
      "name": "setOracle",
      "outputs": [],
      "stateMutability": "nonpayable",
      "type": "function"
    },
    {
      "inputs": [],
      "name": "tokenIdCounter",
      "outputs": [
        {
          "internalType": "uint256",
          "name": "",
          "type": "uint256"
        }
      ],
      "stateMutability": "view",
      "type": "function"
    },
    {
      "inputs": [
        {
          "internalType": "uint256",
          "name": "",
          "type": "uint256"
        }
      ],
      "name": "tokens",
      "outputs": [
        {
          "internalType": "address",
          "name": "tokenAddress",
          "type": "address"
        },
        {
          "internalType": "address",
          "name": "ilpi",
          "type": "address"
        },
        {
          "internalType": "bool",
          "name": "redeemed",
          "type": "bool"
        },
        {
          "internalType": "uint256",
          "name": "investmentAmount",
          "type": "uint256"
        },
        {
          "internalType": "uint256",
          "name": "creationTimestamp",
          "type": "uint256"
        },
        {
          "internalType": "uint8",
          "name": "ilpiRatingAtCreation",
          "type": "uint8"
        }
      ],
      "stateMutability": "view",
      "type": "function"
    },
    {
      "inputs": [
        {
          "internalType": "address",
          "name": "newOwner",
          "type": "address"
        }
      ],
      "name": "transferOwnership",
      "outputs": [],
      "stateMutability": "nonpayable",
      "type": "function"
    },
    {
      "stateMutability": "payable",
      "type": "receive"
    }
  ],
  "bytecode": "0x608060405260c86002553480156200001657600080fd5b5060405162003254380380620032548339810160408190526200003991620000e2565b33806200006057604051631e4fbdf760e01b81526000600482015260240160405180910390fd5b6200006b8162000092565b50600180546001600160a01b0319166001600160a01b039290921691909117905562000114565b600080546001600160a01b038381166001600160a01b0319831681178455604051919092169283917f8be0079c531659141344cd1fd0a4f28419497f9722a3daafe3b4186f6b6457e09190a35050565b600060208284031215620000f557600080fd5b81516001600160a01b03811681146200010d57600080fd5b9392505050565b61313080620001246000396000f3fe608060405260043610620001535760003560e01c80638c6cc7a011620000b9578063aed1960d1162000078578063aed1960d146200048b578063bd097e2114620004b0578063c14a7cc814620004ba578063c2db2c4214620004d2578063d0e30db014620004b0578063f2fde38b14620004e957600080fd5b80638c6cc7a014620003c05780638da5cb5b14620003e557806398bdf6f51462000405578063a4d0ace5146200041d578063a8e7bfd9146200045157600080fd5b80636f9fb98a11620001125780636f9fb98a14620002cf5780637068ae9d14620002ee578063715018a614620003135780637adbf973146200032b5780637dc0d1d014620003505780638a94680f146200038b57600080fd5b8063013054c214620001605780633fe02e3314620001875780634d20434e14620001d95780634f64b2be14620001fe5780636908cfd214620002aa57600080fd5b366200015b57005b600080fd5b3480156200016d57600080fd5b50620001856200017f36600462001ba1565b6200050e565b005b3480156200019457600080fd5b50620001c4620001a636600462001bd8565b6001600160a01b031660009081526003602052604090205460ff1690565b60405190151581526020015b60405180910390f35b348015620001e657600080fd5b5062000185620001f836600462001bd8565b62000702565b3480156200020b57600080fd5b50620002686200021d36600462001ba1565b6004602081905260009182526040909120805460018201546002830154600384015493909401546001600160a01b03928316949282169360ff600160a01b9093048316939290911686565b604080516001600160a01b039788168152969095166020870152921515938501939093526060840152608083019190915260ff1660a082015260c001620001d0565b348015620002b757600080fd5b5062000185620002c936600462001ba1565b62000758565b348015620002dc57600080fd5b50475b604051908152602001620001d0565b348015620002fb57600080fd5b50620002df6200030d36600462001bfd565b620007b0565b3480156200032057600080fd5b506200018562000880565b3480156200033857600080fd5b50620001856200034a36600462001bd8565b62000898565b3480156200035d57600080fd5b5060015462000372906001600160a01b031681565b6040516001600160a01b039091168152602001620001d0565b3480156200039857600080fd5b50620003b0620003aa36600462001ba1565b620008ec565b604051620001d092919062001c80565b348015620003cd57600080fd5b5062000185620003df36600462001bd8565b62000b1a565b348015620003f257600080fd5b506000546001600160a01b031662000372565b3480156200041257600080fd5b50620002df60055481565b3480156200042a57600080fd5b50620001c46200043c36600462001bd8565b60036020526000908152604090205460ff1681565b3480156200045e57600080fd5b50620004766200047036600462001ba1565b62000b6d565b604051620001d0979695949392919062001ca5565b3480156200049857600080fd5b5062000185620004aa36600462001e1b565b62000e62565b62000185620011cb565b348015620004c757600080fd5b50620002df60025481565b62000185620004e336600462001ba1565b620011d5565b348015620004f657600080fd5b50620001856200050836600462001bd8565b6200161d565b60008181526004602052604090206001810154600160a01b900460ff1615620005715760405162461bcd60e51b815260206004820152601060248201526f105b1c9958591e481c995919595b595960821b60448201526064015b60405180910390fd5b8054600154604051632470d22360e11b8152600481018590526001600160a01b039283169260009216906348e1a44690602401602060405180830381865afa158015620005c2573d6000803e3d6000fd5b505050506040513d601f19601f82011682018060405250810190620005e8919062001eda565b9050801562000630576200062a846040518060400160405280601581526020017452656365697661626c652070616964206561726c7960581b81525062001661565b620006fc565b816001600160a01b031663786716fe6040518163ffffffff1660e01b8152600401602060405180830381865afa1580156200066f573d6000803e3d6000fd5b505050506040513d601f19601f8201168201806040525081019062000695919062001ef8565b4210620006a7576200062a8462001854565b60405162461bcd60e51b8152602060048201526024808201527f546f6b656e206e6f74206475652079657420616e64206e6f742070616964206560448201526361726c7960e01b606482015260840162000568565b50505050565b6200070c62001b14565b6001600160a01b038116600081815260036020526040808220805460ff19166001179055517fa170aa0d5aa0be443b852142439bed6c4c7374a1be752881b1e04bf6c7c958439190a250565b6200076262001b14565b6103e8811115620007ab5760405162461bcd60e51b81526020600482015260126024820152710a4d2e6d640e4c2e8ca40e8dede40d0d2ced60731b604482015260640162000568565b600255565b600154604051630c13b02f60e11b81526001600160a01b0383811660048301526000928392911690631827605e90602401602060405180830381865afa158015620007ff573d6000803e3d6000fd5b505050506040513d601f19601f8201168201806040525081019062000825919062001f12565b9050600060025482600a6200083b919062001f4d565b60ff166200084a919062001f69565b62000858906103e862001f83565b90506103e862000869828762001f69565b62000875919062001f99565b925050505b92915050565b6200088a62001b14565b62000896600062001b43565b565b620008a262001b14565b600180546001600160a01b0319166001600160a01b0383169081179091556040517f3df77beb5db05fcdd70a30fc8adf3f83f9501b68579455adbd100b818094039490600090a250565b6000818152600460208181526040808420815160c08101835281546001600160a01b039081168252600183015490811694820194909452600160a01b90930460ff90811615801593850193909352600282015460608086019190915260038301546080860152919094015490931660a0830152620009995760006040518060400160405280601081526020016f105b1c9958591e481c995919595b595960821b8152509250925050915091565b600154604051632470d22360e11b8152600481018690526001600160a01b03909116906348e1a44690602401602060405180830381865afa158015620009e3573d6000803e3d6000fd5b505050506040513d601f19601f8201168201806040525081019062000a09919062001eda565b1562000a3e5760016040518060400160405280600a81526020016950616964206561726c7960b01b8152509250925050915091565b600081600001519050806001600160a01b031663786716fe6040518163ffffffff1660e01b8152600401602060405180830381865afa15801562000a86573d6000803e3d6000fd5b505050506040513d601f19601f8201168201806040525081019062000aac919062001ef8565b421062000ae95760016040518060400160405280601081526020016f111d594819185d19481c995858da195960821b815250935093505050915091565b60006040518060400160405280600b81526020016a139bdd08191d59481e595d60aa1b815250935093505050915091565b62000b2462001b14565b6001600160a01b038116600081815260036020526040808220805460ff19169055517f6a1200df40fb934b4c4f54c9dd1dfc02360c86df1153e3a8144668b19c9ee84b9190a250565b6040805160c081018252600080825260208201819052918101829052606081018290526080810182905260a0810191909152506000818152600460208181526040808420815160c08101835281546001600160a01b039081168252600180840154808316968401879052600160a01b900460ff908116151584870152600285015460608086019190915260038601546080860152948801541660a0840152549351630c13b02f60e11b8152958601949094529493849384938493849390929190911690631827605e90602401602060405180830381865afa15801562000c57573d6000803e3d6000fd5b505050506040513d601f19601f8201168201806040525081019062000c7d919062001f12565b600154604051632470d22360e11b8152600481018b90529197506001600160a01b0316906348e1a44690602401602060405180830381865afa15801562000cc8573d6000803e3d6000fd5b505050506040513d601f19601f8201168201806040525081019062000cee919062001eda565b9450600160009054906101000a90046001600160a01b03166001600160a01b031663f2220c9e6040518163ffffffff1660e01b8152600401602060405180830381865afa15801562000d44573d6000803e3d6000fd5b505050506040513d601f19601f8201168201806040525081019062000d6a919062001ef8565b9350600160009054906101000a90046001600160a01b03166001600160a01b03166369badad66040518163ffffffff1660e01b8152600401602060405180830381865afa15801562000dc0573d6000803e3d6000fd5b505050506040513d601f19601f8201168201806040525081019062000de6919062001ef8565b604051638a94680f60e01b8152600481018a90529093503090638a94680f90602401600060405180830381865afa15801562000e26573d6000803e3d6000fd5b505050506040513d6000823e601f3d908101601f1916820160405262000e50919081019062001fbc565b97999698509496939592949392915050565b3360009081526003602052604090205460ff1662000ecf5760405162461bcd60e51b8152602060048201526024808201527f494c5049206e6f7420617574686f72697a656420746f2063726561746520746f6044820152636b656e7360e01b606482015260840162000568565b82821162000f375760405162461bcd60e51b815260206004820152602e60248201527f546f74616c2064656274206d7573742062652067726561746572207468616e2060448201526d646973636f756e742076616c756560901b606482015260840162000568565b42811162000f885760405162461bcd60e51b815260206004820152601e60248201527f4475652064617465206d75737420626520696e20746865206675747572650000604482015260640162000568565b600154604051630c13b02f60e11b81523360048201526000916001600160a01b031690631827605e90602401602060405180830381865afa15801562000fd2573d6000803e3d6000fd5b505050506040513d601f19601f8201168201806040525081019062000ff8919062001f12565b905060038160ff161015620010465760405162461bcd60e51b8152602060048201526013602482015272494c504920726174696e6720746f6f206c6f7760681b604482015260640162000568565b6000878787878787336040516200105d9062001b93565b6200106f979695949392919062002051565b604051809103906000f0801580156200108c573d6000803e3d6000fd5b506040805160c0810182526001600160a01b038084168252336020808401828152600085870181815260608701828152426080890190815260ff808e1660a08b01908152600580548752600498899052958c90209a518b54908b166001600160a01b0319909116178b55955160018b01805495511515600160a01b026001600160a81b031990961691909a1617939093179097555160028801559451600387015590519490910180549490931660ff19909416939093179091559054915192935090917f952374fdd6b879c51cdf70bb6318068a198fa652c66a580c343dbfd8cfd4938491620011a29185919087906001600160a01b03938416815291909216602082015260ff91909116604082015260600190565b60405180910390a260058054906000620011bc83620020c0565b91905055505050505050505050565b6200089662001b14565b60008181526004602052604090206001810154600160a01b900460ff16156200123a5760405162461bcd60e51b8152602060048201526016602482015275151bdad95b88185b1c9958591e481c995919595b595960521b604482015260640162000568565b80546040805163e0ebd25960e01b815290516001600160a01b0390921691600091839163e0ebd259916004808201926020929091908290030181865afa15801562001289573d6000803e3d6000fd5b505050506040513d601f19601f82011682018060405250810190620012af919062001ef8565b60018401549091506001600160a01b0316348214620013115760405162461bcd60e51b815260206004820152601860248201527f496e636f7272656374207061796d656e7420616d6f756e740000000000000000604482015260640162000568565b6001805490850154604051630c13b02f60e11b81526001600160a01b0391821660048201526000929190911690631827605e90602401602060405180830381865afa15801562001365573d6000803e3d6000fd5b505050506040513d601f19601f820116820180604052508101906200138b919062001f12565b905060028160ff161015620013ee5760405162461bcd60e51b815260206004820152602260248201527f494c504920726174696e6720746f6f207269736b7920666f7220707572636861604482015261736560f01b606482015260840162000568565b60015460408051637911064f60e11b815290516000926001600160a01b03169163f2220c9e9160048083019260209291908290030181865afa15801562001439573d6000803e3d6000fd5b505050506040513d601f19601f820116820180604052508101906200145f919062001ef8565b34600288018190556040519192506000916001600160a01b03861691908381818185875af1925050503d8060008114620014b6576040519150601f19603f3d011682016040523d82523d6000602084013e620014bb565b606091505b50509050806200150e5760405162461bcd60e51b815260206004820152601a60248201527f4661696c656420746f2073656e6420424e4220746f20494c5049000000000000604482015260640162000568565b60405163a9059cbb60e01b8152336004820152670de0b6b3a764000060248201526001600160a01b0387169063a9059cbb906044016020604051808303816000875af115801562001563573d6000803e3d6000fd5b505050506040513d601f19601f8201168201806040525081019062001589919062001eda565b620015cf5760405162461bcd60e51b8152602060048201526015602482015274151bdad95b881d1c985b9cd9995c8819985a5b1959605a1b604482015260640162000568565b604080513381526020810187905290810183905288907f9724b007b03edd022b805a7acc9bbc33ce21a84b5c9e360a5f71b367b97db86d906060015b60405180910390a25050505050505050565b6200162762001b14565b6001600160a01b0381166200165357604051631e4fbdf760e01b81526000600482015260240162000568565b6200165e8162001b43565b50565b6000828152600460208181526040808420805460018201805460ff60a01b1916600160a01b179055825163f117718160e01b8152925191956001600160a01b03909116949093859363f1177181938184019390918290030181865afa158015620016cf573d6000803e3d6000fd5b505050506040513d601f19601f82011682018060405250810190620016f5919062001ef8565b90506000836002015490506000836001600160a01b031663e0ebd2596040518163ffffffff1660e01b8152600401602060405180830381865afa15801562001741573d6000803e3d6000fd5b505050506040513d601f19601f8201168201806040525081019062001767919062001ef8565b62001773838562001f69565b6200177f919062001f99565b604051909150600090339083908381818185875af1925050503d8060008114620017c6576040519150601f19603f3d011682016040523d82523d6000602084013e620017cb565b606091505b50509050806200181e5760405162461bcd60e51b815260206004820152601f60248201527f4561726c7920726564656d7074696f6e207061796d656e74206661696c656400604482015260640162000568565b877f89c2bfaae41252945f73160776b5a990ef4f0ec64c2c4425ae369465a9ad2af833848a6040516200160b93929190620020dc565b6000818152600460208181526040808420805460018201805460ff60a01b1916600160a01b179055825163f117718160e01b8152925191956001600160a01b03909116949093859363f1177181938184019390918290030181865afa158015620018c2573d6000803e3d6000fd5b505050506040513d601f19601f82011682018060405250810190620018e8919062001ef8565b90506000836002015490506000836001600160a01b031663e0ebd2596040518163ffffffff1660e01b8152600401602060405180830381865afa15801562001934573d6000803e3d6000fd5b505050506040513d601f19601f820116820180604052508101906200195a919062001ef8565b62001966838562001f69565b62001972919062001f99565b905062ed4e008560030154426200198a91906200210e565b111562001a3457600154604080516320677cb160e21b815290516000926001600160a01b03169163819df2c49160048083019260209291908290030181865afa158015620019dc573d6000803e3d6000fd5b505050506040513d601f19601f8201168201806040525081019062001a02919062001ef8565b9050600061271062001a15838562001f69565b62001a21919062001f99565b905062001a2f818462001f83565b925050505b604051600090339083908381818185875af1925050503d806000811462001a78576040519150601f19603f3d011682016040523d82523d6000602084013e62001a7d565b606091505b505090508062001ad05760405162461bcd60e51b815260206004820152601960248201527f526564656d7074696f6e207061796d656e74206661696c656400000000000000604482015260640162000568565b604080513381526020810184905288917f7999817f7a2650b889d01306bfd32f098fe68cee46b60ccd18b4441730fb25c4910160405180910390a250505050505050565b6000546001600160a01b03163314620008965760405163118cdaa760e01b815233600482015260240162000568565b600080546001600160a01b038381166001600160a01b0319831681178455604051919092169283917f8be0079c531659141344cd1fd0a4f28419497f9722a3daafe3b4186f6b6457e09190a35050565b610fd6806200212583390190565b60006020828403121562001bb457600080fd5b5035919050565b80356001600160a01b038116811462001bd357600080fd5b919050565b60006020828403121562001beb57600080fd5b62001bf68262001bbb565b9392505050565b6000806040838503121562001c1157600080fd5b8235915062001c236020840162001bbb565b90509250929050565b60005b8381101562001c4957818101518382015260200162001c2f565b50506000910152565b6000815180845262001c6c81602086016020860162001c2c565b601f01601f19169290920160200192915050565b821515815260406020820152600062001c9d604083018462001c52565b949350505050565b600061018060018060a01b03808b511684528060208c01511660208501525060408a01511515604084015260608a0151606084015260808a0151608084015260ff60a08b01511660a084015262001d0160c084018a60ff169052565b87151560e0840152866101008401528561012084015262001d2761014084018615159052565b8061016084015262001d3c8184018562001c52565b9a9950505050505050505050565b634e487b7160e01b600052604160045260246000fd5b604051601f8201601f1916810167ffffffffffffffff8111828210171562001d8c5762001d8c62001d4a565b604052919050565b600067ffffffffffffffff82111562001db15762001db162001d4a565b50601f01601f191660200190565b600082601f83011262001dd157600080fd5b813562001de862001de28262001d94565b62001d60565b81815284602083860101111562001dfe57600080fd5b816020850160208301376000918101602001919091529392505050565b60008060008060008060c0878903121562001e3557600080fd5b863567ffffffffffffffff8082111562001e4e57600080fd5b62001e5c8a838b0162001dbf565b9750602089013591508082111562001e7357600080fd5b62001e818a838b0162001dbf565b9650604089013591508082111562001e9857600080fd5b5062001ea789828a0162001dbf565b945050606087013592506080870135915060a087013590509295509295509295565b8051801515811462001bd357600080fd5b60006020828403121562001eed57600080fd5b62001bf68262001ec9565b60006020828403121562001f0b57600080fd5b5051919050565b60006020828403121562001f2557600080fd5b815160ff8116811462001bf657600080fd5b634e487b7160e01b600052601160045260246000fd5b60ff82811682821603908111156200087a576200087a62001f37565b80820281158282048414176200087a576200087a62001f37565b808201808211156200087a576200087a62001f37565b60008262001fb757634e487b7160e01b600052601260045260246000fd5b500490565b6000806040838503121562001fd057600080fd5b62001fdb8362001ec9565b9150602083015167ffffffffffffffff81111562001ff857600080fd5b8301601f810185136200200a57600080fd5b80516200201b62001de28262001d94565b8181528660208385010111156200203157600080fd5b6200204482602083016020860162001c2c565b8093505050509250929050565b60e0815260006200206660e083018a62001c52565b82810360208401526200207a818a62001c52565b9050828103604084015262002090818962001c52565b60608401979097525050608081019390935260a08301919091526001600160a01b031660c0909101529392505050565b600060018201620020d557620020d562001f37565b5060010190565b60018060a01b038416815282602082015260606040820152600062002105606083018462001c52565b95945050505050565b818103818111156200087a576200087a62001f3756fe60806040523480156200001157600080fd5b5060405162000fd638038062000fd6833981016040819052620000349162000400565b338787600362000045838262000562565b50600462000054828262000562565b5050506001600160a01b0381166200008757604051631e4fbdf760e01b8152600060048201526024015b60405180910390fd5b620000928162000103565b506006620000a1868262000562565b50600884905560098390556007829055600a80546001600160a01b03191633908117909155620000da90670de0b6b3a764000062000155565b6001600160a01b0381163314620000f657620000f68162000193565b5050505050505062000656565b600580546001600160a01b038381166001600160a01b0319831681179093556040519116919082907f8be0079c531659141344cd1fd0a4f28419497f9722a3daafe3b4186f6b6457e090600090a35050565b6001600160a01b038216620001815760405163ec442f0560e01b8152600060048201526024016200007e565b6200018f60008383620001d7565b5050565b6200019d6200030a565b6001600160a01b038116620001c957604051631e4fbdf760e01b8152600060048201526024016200007e565b620001d48162000103565b50565b6001600160a01b03831662000206578060026000828254620001fa91906200062e565b909155506200027a9050565b6001600160a01b038316600090815260208190526040902054818110156200025b5760405163391434e360e21b81526001600160a01b038516600482015260248101829052604481018390526064016200007e565b6001600160a01b03841660009081526020819052604090209082900390555b6001600160a01b0382166200029857600280548290039055620002b7565b6001600160a01b03821660009081526020819052604090208054820190555b816001600160a01b0316836001600160a01b03167fddf252ad1be2c89b69c2b068fc378daa952ba7f163c4a11628f55a4df523b3ef83604051620002fd91815260200190565b60405180910390a3505050565b6005546001600160a01b03163314620003395760405163118cdaa760e01b81523360048201526024016200007e565b565b634e487b7160e01b600052604160045260246000fd5b600082601f8301126200036357600080fd5b81516001600160401b03808211156200038057620003806200033b565b604051601f8301601f19908116603f01168101908282118183101715620003ab57620003ab6200033b565b81604052838152602092508683858801011115620003c857600080fd5b600091505b83821015620003ec5785820183015181830184015290820190620003cd565b600093810190920192909252949350505050565b600080600080600080600060e0888a0312156200041c57600080fd5b87516001600160401b03808211156200043457600080fd5b620004428b838c0162000351565b985060208a01519150808211156200045957600080fd5b620004678b838c0162000351565b975060408a01519150808211156200047e57600080fd5b506200048d8a828b0162000351565b60608a015160808b015160a08c015160c08d01519399509197509550935090506001600160a01b0381168114620004c357600080fd5b8091505092959891949750929550565b600181811c90821680620004e857607f821691505b6020821081036200050957634e487b7160e01b600052602260045260246000fd5b50919050565b601f8211156200055d57600081815260208120601f850160051c81016020861015620005385750805b601f850160051c820191505b81811015620005595782815560010162000544565b5050505b505050565b81516001600160401b038111156200057e576200057e6200033b565b62000596816200058f8454620004d3565b846200050f565b602080601f831160018114620005ce5760008415620005b55750858301515b600019600386901b1c1916600185901b17855562000559565b600085815260208120601f198616915b82811015620005ff57888601518255948401946001909101908401620005de565b50858210156200061e5787850151600019600388901b60f8161c191681555b5050505050600190811b01905550565b808201808211156200065057634e487b7160e01b600052601160045260246000fd5b92915050565b61097080620006666000396000f3fe608060405234801561001057600080fd5b506004361061010b5760003560e01c8063786716fe116100a2578063c45a015511610071578063c45a015514610209578063dd62ed3e1461021c578063e0ebd25914610255578063f11771811461025e578063f2fde38b1461026757600080fd5b8063786716fe146101c05780638da5cb5b146101c957806395d89b41146101ee578063a9059cbb146101f657600080fd5b8063313ce567116100de578063313ce5671461017657806363fc16da1461018557806370a082311461018d578063715018a6146101b657600080fd5b806306fdde0314610110578063095ea7b31461012e57806318160ddd1461015157806323b872dd14610163575b600080fd5b61011861027a565b60405161012591906107ba565b60405180910390f35b61014161013c366004610824565b61030c565b6040519015158152602001610125565b6002545b604051908152602001610125565b61014161017136600461084e565b610326565b60405160128152602001610125565b61011861034a565b61015561019b36600461088a565b6001600160a01b031660009081526020819052604090205490565b6101be6103d8565b005b61015560075481565b6005546001600160a01b03165b6040516001600160a01b039091168152602001610125565b6101186103ec565b610141610204366004610824565b6103fb565b600a546101d6906001600160a01b031681565b61015561022a3660046108ac565b6001600160a01b03918216600090815260016020908152604080832093909416825291909152205490565b61015560085481565b61015560095481565b6101be61027536600461088a565b610409565b606060038054610289906108df565b80601f01602080910402602001604051908101604052809291908181526020018280546102b5906108df565b80156103025780601f106102d757610100808354040283529160200191610302565b820191906000526020600020905b8154815290600101906020018083116102e557829003601f168201915b5050505050905090565b60003361031a81858561044c565b60019150505b92915050565b60003361033485828561045e565b61033f8585856104dd565b506001949350505050565b60068054610357906108df565b80601f0160208091040260200160405190810160405280929190818152602001828054610383906108df565b80156103d05780601f106103a5576101008083540402835291602001916103d0565b820191906000526020600020905b8154815290600101906020018083116103b357829003601f168201915b505050505081565b6103e061053c565b6103ea6000610569565b565b606060048054610289906108df565b60003361031a8185856104dd565b61041161053c565b6001600160a01b03811661044057604051631e4fbdf760e01b8152600060048201526024015b60405180910390fd5b61044981610569565b50565b61045983838360016105bb565b505050565b6001600160a01b038381166000908152600160209081526040808320938616835292905220546000198110156104d757818110156104c857604051637dc7a0d960e11b81526001600160a01b03841660048201526024810182905260448101839052606401610437565b6104d7848484840360006105bb565b50505050565b6001600160a01b03831661050757604051634b637e8f60e11b815260006004820152602401610437565b6001600160a01b0382166105315760405163ec442f0560e01b815260006004820152602401610437565b610459838383610690565b6005546001600160a01b031633146103ea5760405163118cdaa760e01b8152336004820152602401610437565b600580546001600160a01b038381166001600160a01b0319831681179093556040519116919082907f8be0079c531659141344cd1fd0a4f28419497f9722a3daafe3b4186f6b6457e090600090a35050565b6001600160a01b0384166105e55760405163e602df0560e01b815260006004820152602401610437565b6001600160a01b03831661060f57604051634a1406b160e11b815260006004820152602401610437565b6001600160a01b03808516600090815260016020908152604080832093871683529290522082905580156104d757826001600160a01b0316846001600160a01b03167f8c5be1e5ebec7d5bd14f71427d1e84f3dd0314c0f7b2291e5b200ac8c7c3b9258460405161068291815260200190565b60405180910390a350505050565b6001600160a01b0383166106bb5780600260008282546106b09190610919565b9091555061072d9050565b6001600160a01b0383166000908152602081905260409020548181101561070e5760405163391434e360e21b81526001600160a01b03851660048201526024810182905260448101839052606401610437565b6001600160a01b03841660009081526020819052604090209082900390555b6001600160a01b03821661074957600280548290039055610768565b6001600160a01b03821660009081526020819052604090208054820190555b816001600160a01b0316836001600160a01b03167fddf252ad1be2c89b69c2b068fc378daa952ba7f163c4a11628f55a4df523b3ef836040516107ad91815260200190565b60405180910390a3505050565b600060208083528351808285015260005b818110156107e7578581018301518582016040015282016107cb565b506000604082860101526040601f19601f8301168501019250505092915050565b80356001600160a01b038116811461081f57600080fd5b919050565b6000806040838503121561083757600080fd5b61084083610808565b946020939093013593505050565b60008060006060848603121561086357600080fd5b61086c84610808565b925061087a60208501610808565b9150604084013590509250925092565b60006020828403121561089c57600080fd5b6108a582610808565b9392505050565b600080604083850312156108bf57600080fd5b6108c883610808565b91506108d660208401610808565b90509250929050565b600181811c908216806108f357607f821691505b60208210810361091357634e487b7160e01b600052602260045260246000fd5b50919050565b8082018082111561032057634e487b7160e01b600052601160045260246000fdfea2646970667358221220d61efff2ccb358feb3f83a5466eb592ff03f2f00d806509e62733c41fd41b8c864736f6c63430008140033a264697066735822122006ff39b7e53497247ec684d52cdd01333e15da3672eff0f2dd385a8051cfb31664736f6c63430008140033",
  "linkReferences": {},
  "deployedLinkReferences": {}
}